:020000040800F2
:10000000280E002065140008391200083B12000871
:100010003F120008431200084712000800000000C9
:100020000000000000000000000000004B1200086B
:100030004D120008000000004F1200085112000885
:100040007F1400087F1400087F1400087F14000844
:100050007F1400087F1400087F1400087F14000834
:100060007F1400087F1400087F1400087F14000824
:100070007F1400087F1400087F1400087F14000814
:100080007F1400087F1400087F1400087F14000804
:100090007F1400087F1400087F1400087F140008F4
:1000A0007F1400085F4600087F1400087F140008D2
:1000B0007F140008BB0B00087F1400087F140008A1
:1000C0007F1400087F1400087F1400087F140008C4
:1000D0007F140008D10300087F140008D50200082F
:1000E0007F1400087F1400087F1400087F140008A4
:1000F0007F1400087F1400084D4500087F14000895
:100100007F1400087F1400087F1400087F14000883
:100110007F1400087F1400087F1400087F14000873
:100120007F1400087F1400087F1400087F14000863
:100130007F1400087F1400087F1400087F14000853
:100140007F1400087F1400087F1400087F14000843
:100150007F1400087F1400087F1400087F14000833
:100160007F1400087F1400087F1400087F14000823
:100170007F1400087F1400087F1400087F14000813
:100180007F1400087F14000800F002F800F092F8D5
:100190000AA090E8000C82448344AAF10107DA45E2
:1001A00001D100F087F8AFF2090EBAE80F0013F0A2
:1001B000010F18BFFB1A43F001031847D460000079
:1001C000F4600000103A24BF78C878C1FAD852070A
:1001D00024BF30C830C144BF04680C6070470000C1
:1001E0000023002400250026103A28BF78C1FBD840
:1001F000520728BF30C148BF0B6070476E2904F01A
:100200009384702904F0F587662905F0BD87652978
:1002100005F0BA87672905F0B787612905F0B68729
:1002200003681B0A28BF41F08001692904F09E82FF
:10023000642904F09B82752904F098826F2904F0E8
:100240008387782904F0C187E92904F01D87E42910
:1002500004F01A87F52904F01787EF2904F0808746
:10026000F82904F0C0870368DB0928BF41F080014A
:10027000632905F0DB81732905F0E081E32905F0AE
:10028000EB81F32905F0F081002070471FB505F0E0
:1002900076FF04F0B9FF04000020002105F0E2FE23
:1002A000401C60600020002105F0C6FEE0601FBD1C
:1002B00010B510BD05F072FA1146FFF7E7FF00F028
:1002C00099FD05F099FA03B4FFF7F2FF03BC02F0C1
:1002D000D9FE000010B540F22551FE4802F006FE9E
:1002E00000284DD0FB4802F04CFDC4B2FA4800781B
:1002F000012845D10A2C06D0F8480078032802D1FD
:100300000020F64908700A2C08D1F4480078032828
:1003100004D1F2480078401CF04908700D2C06D03A
:10032000EE480078022802D10020EC4908700D2C1C
:1003300008D1EA480078022804D1E8480078401C37
:10034000E64908704B2C06D0E4480078012802D119
:100350000020E24908704B2C08D1E04800780128C1
:1003600004D1DE480078401CDC4908704F2C07D1CE
:10037000DA48007820B9D9480078401CD74908707D
:1003800010BD10B50120D44908701EE0D348007894
:1003900004280CD10A2002F055FED0480078042829
:1003A00005D10020CD490870CB4908700EE0CC483B
:1003B0000068401CCA490860642002F043FEC84837
:1003C0000068B0F5167F00D900E0DFE700BF10BD80
:1003D00010B540F22551C34802F088FD00287DD0B9
:1003E000C04802F0CEFCC049087008460178BD48FC
:1003F00002F0B9FCBD480078012870D0BB480078F5
:100400000228FAD0B74802F0BCFCB9490870B948D4
:10041000007801287DD10846007830280BD1F021E2
:10042000B54801F0C2FF322002F00CFE4FF4166115
:10043000B14801F0BAFFAE48007831280CD14FF432
:10044000F071AD4801F0B1FF322002F0FBFD4FF436
:100450001661A94801F0A9FFA548007832280CD1FF
:100460004FF43471A44801F0A0FF322002F0EAFDFD
:100470004FF41661A04801F098FF9D48007833289A
:100480000CD14FF470719C4801F08FFF322002F0C4
:10049000D9FD4FF41661984801F087FF9448007821
:1004A00034280CD14FF49661934801F07EFF32203E
:1004B00002F0C8FD4FF416618F4801F076FF8C48BA
:1004C000007835280FD14FF4B4618B4801F06DFFEF
:1004D000322002F0B7FD4FF4166101E06CE376E1E3
:1004E000854801F062FF8248007836280CD14FF42D
:1004F000F061814801F059FF322002F0A3FD4FF472
:1005000016617D4801F051FF7948007837280ED1F7
:1005100000E030E04FF4FF61774801F046FF322001
:1005200002F090FD4FF41661734801F03EFF7048F1
:10053000007838280CD14FF407616F4801F035FF7F
:10054000322002F07FFD4FF416616B4801F02DFF61
:100550006748007839280BD10021674801F025FF52
:10056000642002F06FFD4FF41661634801F01DFF37
:100570000020604908705E4800782A2807D15D484D
:10058000007820B95B480078401C5A4908705B48E5
:10059000007801287DD15648007830280BD1F02111
:1005A000574801F002FF322002F04CFD4FF4166173
:1005B000534801F0FAFE4E48007831280CD14FF430
:1005C000F0714F4801F0F1FE322002F03BFD4FF494
:1005D00016614B4801F0E9FE4548007832280CD1FD
:1005E0004FF43471464801F0E0FE322002F02AFD5B
:1005F0004FF41661424801F0D8FE3D480078332898
:100600000CD14FF470713E4801F0CFFE322002F061
:1006100019FD4FF416613A4801F0C7FE34480078DE
:1006200034280CD14FF49661354801F0BEFE3220DB
:1006300002F008FD4FF41661314801F0B6FE2C4877
:10064000007835280CD14FF4B4612D4801F0ADFE8F
:10065000322002F0F7FC4FF41661294801F0A5FEA4
:100660002348007836280CD14FF4F061244801F07B
:100670009CFE322002F0E6FC4FF41661204801F0A7
:1006800094FE1B48007837280ED14FF4FF611C48B8
:1006900000E046E001F089FE322002F0D3FC4FF486
:1006A0001661174801F081FE1148007838280CD1F6
:1006B0004FF40761124801F078FE322002F0C2FCCC
:1006C0004FF416610E4801F070FE09480078392891
:1006D00024D117E0004800405000002051000020C5
:1006E000540000200010014058000020320000207B
:1006F000330000203A000020002000403B00002092
:10070000004001400021FA4801F04FFE322002F083
:1007100099FC4FF41661F64801F047FE0020F549B8
:100720000870F5480078502807D1F248007820B9C1
:10073000F0480078401CEF490870F0480078012824
:1007400039D1ED480078302806D10121EC4801F07C
:10075000C7FC0120EB490870E7480078312806D132
:100760000121E74801F0BCFC0220E6490870E2489C
:100770000078322806D10121E14801F0B1FC0320C4
:10078000E0490870DC480078332806D10121DC48B4
:1007900001F0A6FC0420DB490870D7480078342813
:1007A00006D10121D64801F09BFC0520D5490870EF
:1007B0000020D2490870D0480078532807D1CF488C
:1007C000007820B9CD480078401CCC490870CE484C
:1007D000007801281CD1CD4802F0D3FA00EE100AAF
:1007E000B8EE400ACA4880ED000A0320C6490870E6
:1007F000692002F027FCC64890ED000ADFEDC50A2B
:1008000020EE200ADFEDC40A80EE201A80ED001AE7
:10081000BD48007802281ED1BC4802F0B2FA00EEB2
:10082000100AB8EE400ABA4880ED000A0320B64923
:100830000870692002F006FCB54890ED000AB1EEA0
:10084000400ADFEDB40A20EE200ADFEDB30A80EEA5
:10085000201A80ED001AB1480078012807D0AF486F
:100860000078022803D0AD480078032811D1A648AB
:10087000007803280DD0A04800782B2802D1012051
:10088000A14908709C4800782D2802D102209E4979
:100890000870A2480078012868D19B480078032896
:1008A00064D100209D490870974908709C480078E1
:1008B00001285BD1964890ED000A9A48D0ED000AD5
:1008C00030EE600A9848D0ED000A30EE600A974892
:1008D00080ED000A90ED000AB5EEC00AF1EE10FAC4
:1008E00002DD012092490860904890ED000AB5EEC3
:1008F000C00AF1EE10FA08D290ED000AB1EE400AFB
:1009000080ED000A00208A490860814890ED000AC5
:100910008448D0ED000A30EE600A834880ED000A7A
:10092000824890ED000ABCEEC00A824880ED000AC1
:1009300011E07F480830006808B9012000E000207D
:100940007B4908310860012002F07CFB794800688F
:10095000401E78490860774800680028E9D10120E6
:10096000754908700121694802F0C5F96B480078A3
:1009700002286AD164480078032866D100206749BC
:100980000870614908706648007801285DD16048A8
:1009900090ED000A6948D0ED000A30EE600A684820
:1009A000D0ED000A30EE600A664880ED000A90ED56
:1009B000000AB5EEC00AF1EE10FA03DD01205C4931
:1009C000083908605F4890ED000AB5EEC00AF1EE04
:1009D00010FA09D290ED000AB1EE400A80ED000A4B
:1009E0000020534908390860494890ED000A5348EF
:1009F000D0ED000A30EE600A514880ED000A5148FF
:100A000090ED000ABCEEC00A4A4880ED000A11E0F1
:100A10004748001F006808B9012000E00020444951
:100A2000091F0860012002F00DFB42480068401ECB
:100A3000404908603F4800680028E9D10120424948
:100A400008700121314802F056F934480078032833
:100A50004DD12D480078032849D100202F49087036
:100A6000294908702E480078012840D1284890ED87
:100A7000000A3648D0ED000A30EE600A3448D0ED66
:100A8000000A30EE600A334880ED000A90ED000A5B
:100A9000B5EEC00AF1EE10FA03DD01202449103949
:100AA00008602C4890ED000AB5EEC00AF1EE10FA8D
:100AB00009D290ED000AB1EE400A80ED000A002054
:100AC0001B4910390860124890ED000A1F48D0ED0C
:100AD000000A30EE600A1E4880ED000A1D4890EDC5
:100AE000000ABCEEC00A134880ED000A44E04EE064
:100AF000004001403B000020330000203C0000206B
:100B0000000400403D0000203200002000100140A1
:100B1000080000200000C8440000B443000000208A
:100B2000310000200C0000201000002004000020F4
:100B3000A08242422000002001000020400000204E
:100B400018000020140000200200002044000020B3
:100B50004C00002048000020F748006808B9012038
:100B600000E00020F4490860012002F06BFAF3482D
:100B70000068401EF1490860F04800680028EBD189
:100B80000120EF4908700121EE4802F0B4F8EE4868
:100B90000078412802D10120EC490870EA48007829
:100BA000422802D10220E9490870E748007843282A
:100BB00002D10320E549087010BD10B52DED028B60
:100BC0000121E34801F0BBFE01287DD1E148007816
:100BD0000028FAD14021902003F026FA902003F05B
:100BE000D7F9DD490860DD48D0ED000A084690EDF0
:100BF000000AB8EE400AF4EEC00AF1EE10FA0DDD7C
:100C00000120CD490C310860D548D0F8A80208B9B8
:100C1000012000E00020C84914310860CF48D0ED21
:100C2000000ACD4890ED000AB8EE400AF4EEC00A82
:100C3000F1EE10FA0DD20020BF490C310860C8480F
:100C4000D0F8A80208B9012000E00020BA49143108
:100C50000860C248D0ED000ABF4890ED000AB8EE27
:100C6000400AF4EE400AF1EE10FA04D10120BD4929
:100C70000870B84908704021902003F0EBF99020EB
:100C800003F099F9B849087008460178B7A003F055
:100C900061FDB848006805F001FA41EC180B53EC0F
:100CA000182BB5A003F056FDB248D0ED000AAE48AF
:100CB000007800EE100AB8EE400AF4EEC00AF1EE39
:100CC00010FA0FDD012000E08DE09B49091D08604E
:100CD000A348D0F89C0208B9012000E00020964902
:100CE00008310860A348D0ED000A9F48007800EE64
:100CF000100AB8EE400AF4EEC00AF1EE10FA0DD276
:100D000000208D49091D08609548D0F89C0208B95B
:100D1000012000E000208849083108609548D0EDA6
:100D2000000A9148007800EE100AB8EE400AF4EE8E
:100D3000400AF1EE10FA04D1012094490870854967
:100D400008704021902003F09BF9902003F046F9B1
:100D50008F4908708F48D0ED000A0846007800EEF1
:100D6000100AB8EE400AF4EEC00AF1EE10FA0CDDFB
:100D700001207149091F08607948D0F8940208B928
:100D8000012000E000206C4908608248D0ED000A94
:100D90007F48007800EE100AB8EE400AF4EEC00A70
:100DA000F1EE10FA0CD200206349091F08606C486C
:100DB000D0F8940208B9012000E000205E490860E4
:100DC0007448D0ED000A7248007800EE100AB8EEC0
:100DD000400AF4EE400AF1EE10FA04D101206E4907
:100DE00008705C4908700121594801F0B9FDBDEC5B
:100DF000028B10BD4FF4A06000F054FB01212020B5
:100E000000F0E4FEA82002F0BBF802F0FBFA02F0CA
:100E1000A3FA42F2CF0140F65F1003F03EFA42F22D
:100E2000CF0140F65F1003F084FA42F2CF0140F6A2
:100E30005F1003F0C9FA4FF4E13002F030F94FF4DB
:100E4000E13002F0F8F99FED550A444880ED000AC0
:100E50009FED520A474880ED000A9FED500A4D4829
:100E600080ED000A01204E49086000204D49C1F87C
:100E7000880201204A49083108600020091D0860E5
:100E80000120091D086000204649C1F89C024FF46A
:100E90001661454801F089FA4FF41661434801F0A4
:100EA00084FA4FF41661424801F07FFAABE10A2060
:100EB00002F0C8F83F48007800287FD101203D4962
:100EC000087010E000201C490C3108602448D0F85C
:100ED000A80208B9012000E0002017491431086079
:100EE000012002F0AFF80421334800F033FC002861
:100EF000E8D10FE000201049091F08601848D0F819
:100F0000940208B9012000E000200B49086001208C
:100F100002F098F80221284800F01CFC0028E9D1D2
:100F200053E000200449091D08600D48D0F89C02D8
:100F300008B9012044E042E09482424220000020AF
:100F400003000020001001403300002000000020BA
:100F500000040040310000201C0000200C00002094
:100F600000804242350000203400002025640D0A34
:100F70000000000040000020202020202020202011
:100F8000202020252E31660D0A00000036000020AA
:100F9000370000204400002038000020000000003E
:100FA0008482404200804042000C004000400140EA
:100FB000002000405900002000140240D8E000202A
:100FC00091490860012002F03DF808218F4800F0A7
:100FD000C1FB0028A5D14FF4DC708D49086015E0F5
:100FE00001208949091D08608A48D0F8A80208B97B
:100FF000012000E0002084490C310860012002F04B
:1010000021F883480068401E8149086080480068D4
:101010000028E5D14FF4C8707D49086015E0012033
:1010200079490C3908607B48D0F8940208B901204E
:1010300000E00020744908390860012002F002F83D
:1010400073480068401E72490860714800680028B3
:10105000E5D14FF4E6706E49086014E001206A495A
:10106000091F08606B48D0F89C0208B9012000E015
:10107000002065490860012001F0E4FF6448006831
:10108000401E63490860624800680028E6D10120DC
:101090006149087010E001205B49143108605D4827
:1010A000D0F8AC0208B9012000E000205649103108
:1010B0000860012001F0C6FF0221584800F04AFBF9
:1010C0000028E8D110E000204F491C310860514849
:1010D000D0F8B40208B9012000E000204A491831D4
:1010E0000860012001F0AEFF04214C4800F032FB03
:1010F0000028E8D14FF4FA704549086015E0002057
:101100004149143108604348D0F8AC0208B90120C5
:1011100000E000203C4910310860012001F092FFFE
:101120003B480068401E3A4908603948006800287A
:10113000E5D14FF4FA703649086015E001203249D4
:101140001C3108603348D0F8B40208B9012000E02F
:1011500000202D4918310860012001F073FF2C4850
:101160000068401E2A490860294800680028E5D127
:101170002B480078012814D101212A4800F0B0FF43
:101180004FF49661274801F010F94FF4967001F082
:1011900059FF4FF41661234801F007F90020204958
:1011A000087021480078012814D101211F4800F05F
:1011B00097FF4FF496611D4801F0F7F84FF49670D1
:1011C00001F040FF4FF41661184801F0EEF80020DE
:1011D0001549087016480078012814D101211548D6
:1011E00000F07EFF4FF49661124801F0DEF84FF4F4
:1011F000967001F027FF4FF416610E4801F0D5F804
:1012000000200B49087052E69C82424200140240C2
:1012100020000020008042423100002000080240EF
:101220000300002000400140020000200020004098
:1012300001000020000C0040704700BFFEE700BF27
:10124000FEE700BFFEE700BFFEE77047704770474C
:10125000704700000CB500200190009076480068AF
:1012600040F480307449086000BF7348006800F49F
:10127000003000900198401C0190009818B9019826
:10128000B0F5A04FF1D16C48006800F4003010B107
:101290000120009001E0002000900098012846D134
:1012A00065484030006840F0805063494031086034
:1012B0006248006840F44040604908605E48083079
:1012C00000685D49083108600846006840F4004045
:1012D00008600846006840F4A05008605848091F9C
:1012E0000860081F006840F08070091F086000BF98
:1012F0005148006800F000700028F9D040F20570F5
:10130000504908604C480830006820F003004A4902
:10131000083108600846006840F00200086000BF1D
:1013200045480830006800F00C000828F8D10CBDD2
:1013300010B54548006840F47000434908603E48D5
:10134000006840F001003C49086000203A4908313B
:101350000860394800683D490840374908603C4802
:10136000091D0860081F006820F48020091F08601C
:10137000002031490C310860FFF76CFF4FF000602E
:1013800031498039086010BD70B500200022022369
:1013900000240221284D08352D6805F00C0020B1ED
:1013A000042806D0082834D107E02A4D2A4E35609B
:1013B00033E02A4D284E35602FE01F4D2D1D2D683E
:1013C000C5F380541C4D2D1D2D6805F03F0154B10F
:1013D000224DB5FBF1F5184E361D3668C6F388165A
:1013E00005FB06F209E01B4DB5FBF1F5124E361D6B
:1013F0003668C6F3881605FB06F20F4D2D1D2D68C5
:10140000C5F301456D1C6B00B2FBF3F5124E356060
:1014100003E0104D104E356000BF00BF064D08358B
:101420002D68C5F303150E4E705D0B4D2D68C5403C
:10143000094E356070BD0000003802400070004069
:1014400008544007003C024088ED00E0FFFFF6FE34
:10145000103000240024F4007000002000127A00F4
:10146000740000200948804709480047FEE7FEE76E
:10147000FEE7FEE7FEE7FEE7FEE7FEE7FEE7FEE744
:1014800004480549054A064B70470000311300081F
:101490008901000828080020280E0020280A0020C2
:1014A000280A002032490143324A1160704770B562
:1014B000002100230F22C4781CB32E4C246804F4AE
:1014C000E064C4F5E064C4F30721C1F10404E3B2AD
:1014D0000A4144789C40E1B28478144021430C07CF
:1014E000210E254C05786155047804F01F05012470
:1014F000AC4005786D11AD0005F1E025C5F800415F
:1015000009E0047804F01F050124AC401B4D067867
:10151000761145F8264070BD194A0A400243154B22
:101520001B1F1A60704739B1124A121D126802431C
:10153000104B1B1D1A6006E00E4A121D12688243F2
:101540000C4B1B1D1A607047042808D14FF0E02196
:10155000096941F004014FF0E022116107E04FF00A
:10156000E021096921F004014FF0E0221161704788
:101570000000FA050CED00E000E400E080E100E08E
:1015800080FFFF1F10B504469848844208D101210E
:10159000084600F086FB0021012000F082FB76E087
:1015A0009348844208D10121022000F07AFB0021F7
:1015B000022000F076FB6AE08E48844208D10121C7
:1015C000042000F06EFB0021042000F06AFB5EE0C6
:1015D0008948844208D10121082000F062FB0021E3
:1015E000082000F05EFB52E08448844208D10121CB
:1015F000102000F056FB0021102000F052FB46E0C6
:101600007F48844208D10121202000F04AFB0021BC
:10161000202000F046FB3AE07A48844208D10121BC
:10162000402000F03EFB0021402000F03AFB2EE07D
:101630007548844208D10121802000F032FB00214E
:10164000802000F02EFB22E07048844208D1012166
:10165000801500F026FB0021A01500F022FB16E00B
:101660006B48844208D10121401500F01AFB00218B
:10167000601500F016FB0AE06648844207D101219C
:10168000001500F00EFB0021201500F00AFB10BD34
:10169000F0B50A4600210023002400BF3DE00125EB
:1016A00005FA01F3156805EA03049C4234D1056884
:1016B0004F000326BE40B543056015794E00B54086
:1016C0000668354305601579012D02D01579022D84
:1016D00016D185684F000326BE40B5438560557915
:1016E0004E00B540866835438560456801268E40CA
:1016F000B5434560456896798E40B6B2354345603E
:10170000C5684F000326BE40B543C560D5794E007D
:10171000B540C6683543C560491C1029BFD3F0BD2C
:101720004FF6FF7101600021017141718171C1713A
:10173000704708B54FF480320092009A0A43009235
:10174000009AC261C161009AC261C2690092C26915
:10175000009208BD0246002013690B400BB1012026
:1017600000E0002070470146086980B270470246D9
:10177000002053690B400BB1012000E000207047AE
:101780000146486980B270470183704741837047C2
:101790000AB1018300E041837047416170474269AB
:1017A0004A4042617047F0B5002300244D07ED0E1A
:1017B00002FA05F3CE1000F1200555F826504E0729
:1017C000F70E0F26BE40B543CF1000F1200646F8B5
:1017D0002750CE1000F1200555F8265045EA0304A5
:1017E000CE1000F1200545F82640F0BD0000024073
:1017F0000004024000080240000C024000100240B9
:101800000014024000180240001C02400020024068
:101810000024024000280240F948006840F001001E
:10182000F74908600020F64908310860F44800686C
:10183000F4490840F2490860F348091D0860F3487C
:10184000EF4984310860F0481038091D0860EC4801
:10185000006820F48020EA4908600020E8490C3143
:101860000860E7498C31086070470021E44A921C07
:10187000117011460870704710B501460022002310
:1018800000204A11012A02D1DD4C236808E0022A17
:1018900003D1DB4C7034236802E0D94C74342368E4
:1018A00001F01F02012494401C400CB1012000E013
:1018B000002010BD38B5002000900024002500BF96
:1018C0003120FFF7D9FF05460098401C0090009892
:1018D000B0F5A04F01D0002DF2D03120FFF7CCFFA2
:1018E00008B1012400E00024204638BD0146002054
:1018F000C34A106820F0F80040EAC1001060704749
:10190000C349086070470021BD4A703211701170E0
:10191000012802D004280AD104E00121B84A70321B
:10192000117005E00521B64A7032117000E000BF69
:1019300000BF7047B7490860704770B5049C41EA22
:1019400082150126C6EB530645EA0645054345EADE
:101950000465AB4E361D356070BDAD4908667047F5
:10196000820142EA0172A64B84331A607047A8498B
:101970008866704710B5830143EA016343EA027346
:101980009F4C8834236010BDA14908677047A04967
:10199000C864704702460020994B0833186820F04D
:1019A000EC6042EA01031843954B08331860704716
:1019B00002460020924B0833186820F0784042EA33
:1019C000010318438E4B083318607047014600200E
:1019D0008B4A0832106820F00300084310607047FB
:1019E00087480830006800F00C007047014600206E
:1019F000834A0832106820F0F000084310607047F6
:101A0000014600207E4A0832106820F4E050084366
:101A10001060704701460020794A0832106820F4AF
:101A2000604040EAC10010607047F0B5002100221C
:101A30000024022500260223714F08373F6807F073
:101A40000C0121B1042905D0082937D105E0724FD6
:101A5000076036E0714F076033E0694F3F1D3F6814
:101A6000C7F38056664F3F1D3F6807F03F036EB1D6
:101A70006A4FB7FBF3F7DFF888C10CF1040CDCF810
:101A800000C0CCF3881C07FB0CF40CE0624FB7FBE2
:101A9000F3F7DFF86CC10CF1040CDCF800C0CCF3F8
:101AA000881C07FB0CF4564F3F1D3F68C7F30147E6
:101AB0007F1C7D00B4FBF5F7076002E0564F07601E
:101AC00000BF00BF4E4F08373F6807F0F00109091B
:101AD000534F7A5C0768D7404760494F08373F68E3
:101AE00007F4E051890A4E4F7A5C4768D740876017
:101AF000434F08373F6807F46041490B484F7A5C11
:101B00004768D740C760F0BD002100F44072B2F5CD
:101B1000407F0AD13A4A0832116821F4F811414A4B
:101B200002401143364A08321160354A7032126859
:101B3000C0F30B031A43324B70331A6070473549B8
:101B40004439086070473349403908607047364966
:101B50000860704701460020294A8C32106820F046
:101B60001F004A1E1043264A8C32106070470146FF
:101B70000020234A8C32106820F4F8504A1E40EAB4
:101B800002201F4A8C3210607047014600201C4A18
:101B90008C32106820F440100843106070470146F2
:101BA0000020174A8C32106820F44000084310606F
:101BB000704701460020124A8C32106820F44030F1
:101BC00008431060704719490860704739B10C4AE2
:101BD0003032126802430A4B30331A6006E0084A7A
:101BE000303212688243064B30331A607047F9B1C5
:101BF000034A343212680243014B34331A601CE04A
:101C000000380240FFFFF6EA1030002400300020C8
:101C100000004742800E47420024F40000127A0080
:101C200084000020FFFCFF0F5C014742E0114742A7
:101C30008F4A126882438E4B1A60704739B18C4AC2
:101C4000121D126802438A4B1B1D1A6006E0884A67
:101C5000121D12688243864B1B1D1A60704739B1F2
:101C6000834A0C3212680243814B0C331A6006E03F
:101C70007F4A0C32126882437D4B0C331A607047E6
:101C800039B17B4A103212680243794B10331A6023
:101C900006E0774A103212688243754B10331A609F
:101CA000704739B1724A243A12680243704B243BA0
:101CB0001A6006E06E4A243A126882436C4B243B59
:101CC0001A60704739B16A4A203A12680243684B79
:101CD000203B1A6006E0664A203A12688243644B51
:101CE000203B1A60704739B1614A1C3A12680243BE
:101CF0005F4B1C3B1A6006E05D4A1C3A1268824347
:101D00005B4B1C3B1A60704739B1594A143A126850
:101D10000243574B143B1A6006E0554A143A1268C6
:101D20008243534B143B1A60704739B1504A103A02
:101D3000126802434E4B103B1A6006E04C4A103AC0
:101D4000126882434A4B103B1A60704739B1484AC7
:101D50001C3212680243464B1C331A6006E0444AA8
:101D60001C3212688243424B1C331A60704739B1EF
:101D70003F4A2032126802433D4B20331A6006E08E
:101D80003B4A203212688243394B20331A60704735
:101D900039B1374A243212680243354B24331A6072
:101DA00006E0334A243212688243314B24331A60EE
:101DB000704739B12E4A2C32126802432C4B2C3317
:101DC0001A6006E02A4A2C3212688243284B2C33D0
:101DD0001A60704739B1264A303212680243244BE8
:101DE00030331A6006E0224A303212688243204BB8
:101DF00030331A607047012808D11D493C31096809
:101E000041F008011A4A3C32116007E018493C31A0
:101E1000096821F00801164A3C321160704739B157
:101E2000134A273A12780243114B273B1A7006E0F7
:101E30000F4A273A127882430D4B273B1A7070479E
:101E40000B484030006840F080700949403108601C
:101E5000704701460020064A283A12680A400AB133
:101E6000012000E0002070470149263908707047C2
:101E70003438024010B50446FE48844208D101219E
:101E80000846FFF752FF00210120FFF74EFF9DE0BB
:101E9000B4F1804F08D101210846FFF735FF00213A
:101EA0000120FFF731FF91E0F348844208D101217E
:101EB0000220FFF729FF00210220FFF725FF85E020
:101EC000EE48844208D101210420FFF71DFF0021C4
:101ED0000420FFF719FF79E0E948844208D1012185
:101EE0000820FFF711FF00210820FFF70DFF6DE02C
:101EF000E448844208D101211020FFF705FF0021AA
:101F00001020FFF701FF61E0DF48844208D1012182
:101F10002020FFF7F9FE00212020FFF7F5FE55E015
:101F2000DA48844208D101210220FFF7FEFE002199
:101F30000220FFF7FAFE49E0D548844209D1012189
:101F40000804FFF7F2FE00214FF48030FFF7EDFEAA
:101F50003CE0D048844209D101214804FFF7E5FE66
:101F600000214FF40030FFF7E0FE2FE0CA48844222
:101F700009D101218804FFF7D8FE00214FF4802009
:101F8000FFF7D3FE22E0C548844208D1012140205A
:101F9000FFF7BAFE00214020FFF7B6FE16E0C0486A
:101FA000844208D101218020FFF7AEFE002180206D
:101FB000FFF7AAFE0AE0BB48844207D10121801541
:101FC000FFF7A2FE0021A015FFF79EFE10BD002224
:101FD0000288A84B98420ED0AC4B98420BD0B0F17F
:101FE000804F08D0A44B984205D0A44B984202D011
:101FF000A34B984204D14FF68F731A404B881A4373
:10200000A04B984207D0A04B984204D04FF6FF4314
:102010001A400B891A4302804B68C3620B88038500
:10202000944B984202D0994B984201D18B7A038607
:102030000123838270474FF0FF314160002101800E
:1020400001814180817270470185828270470A4612
:10205000002101884FF68F731940114301807047AA
:1020600041627047C16270470146486A7047014645
:10207000088D704721B1028842F00202028004E01C
:1020800002884FF6FD731A400280704721B1028822
:1020900042F00402028004E002884FF6FB731A400B
:1020A0000280704721B1028842F08002028004E081
:1020B00002884FF67F731A400280704702884FF6FD
:1020C000F7731A40028002880A4302807047028830
:1020D0004FF6FF431A40028002880A43028070478D
:1020E00021B1028842F00102028004E002884FF62A
:1020F000FE731A400280704770B50024002200234E
:10210000058C4FF6FE7635400584028C8388048B5F
:102110004FF68F752C40B51E2C400D882C43751E34
:102120002A408D892A434D882A43524DA84202D025
:10213000564DA84213D14FF6F7752A40CD892A4350
:102140004FF6FB752A408D882A434FF6FF652B40DA
:102150004FF6FF552B400D8A2B434D8A2B4383802E
:1021600004838D684563028470BD70B5002400222D
:102170000023058C4FF6EF7635400584028C83886A
:10218000048B48F6FF752C404FF6FF452C400D8818
:102190004FF6FF7606EA05252C434FF6DF752A40F9
:1021A0008D8906EA05152A434D8806EA05152A4356
:1021B000304DA84202D0354DA8421DD14FF67F7553
:1021C0002A40CD894FF6FF7606EA05152A434FF6D9
:1021D000BF752A408D8806EA05152A434FF6FF355C
:1021E0002B404FF2FF752B400D8A06EA85052B43E5
:1021F0004D8A06EA85052B43838004838D688563B9
:10220000028470BD70B5002400220023058C4FF6B7
:10221000FF6635400584028C8388848B4FF68F756A
:102220002C404FF6FC752C400D882C434FF6FF5583
:102230002A408D894FF6FF7606EA05252A434D8808
:1022400006EA05252A430B4DA84202D00F4DA842AD
:1022500038D14FF2FF752A40CD894FF6FF7606EA56
:1022600005252A434FF6FF352A408D8806EA0525C5
:102270002A4319E00000014000040040000800402B
:10228000000C004000100040001400400004014019
:102290000040014000440140004801400018004057
:1022A000001C0040002000404EF6FF752B404DF60C
:1022B000FF752B400D8A06EA05152B434D8A06EA69
:1022C00005152B43838084838D68C563028470BDAC
:1022D00070B5002200230024058C4EF6FF763540B1
:1022E0000584038C8488828B48F6FF752A404FF65C
:1022F000FF452A400D884FF6FF7606EA05252A435A
:102300004DF6FF752B408D8906EA05352B434D8828
:1023100006EA05352B43FE4DA84202D0FD4DA842EA
:1023200008D14BF6FF752C400D8A4FF6FF7606EA72
:1023300085152C43848082838D680564038470BD79
:10234000002101804180818081608181C181018281
:102350004182704770B503460020002418461830AB
:1023600001258D40ACB21D8CA5431D8409B10829FF
:102370000AD100EB610005684FF68F7635400560A5
:102380000568154305600FE00D1FC5F34E05284491
:10239000056848F6FF763540056005684FF6FF761C
:1023A00006EA02263543056070BD416370478163CC
:1023B0007047C1637047016470470A460021018B72
:1023C0004FF68F7319401143018370470A4600216D
:1023D000018B48F6FF7319404FF6FF7303EA02239F
:1023E0001943018370470A460021818B4FF68F7392
:1023F00019401143818370470A460021818B48F6BA
:10240000FF7319404FF6FF7303EA022319438183D8
:1024100070470A460021018B4FF6F77319401143AC
:10242000018370470A460021018B4FF2FF73194068
:102430004FF6FF7303EA02231943018370470A46EC
:102440000021818B4FF6F773194011438183704748
:102450000A460021818B4FF2FF7319404FF6FF733C
:1024600003EA02231943818370470A460021018B46
:102470004FF6FB7319401143018370470A46002150
:10248000018B4FF6FF3319404FF6FF7303EA022327
:102490001943018370470A460021818B4FF6FB7375
:1024A00019401143818370470A460021818B4FF602
:1024B000FF3319404FF6FF7303EA02231943818368
:1024C00070470A460021018B4FF67F731940114374
:1024D000018370470A460021018BC1F30E014FF6BC
:1024E000FF7303EA02231943018370470A46002160
:1024F000818B4FF67F7319401143818370470A46E1
:102500000021818BC1F30E014FF6FF7303EA022312
:102510001943818370470A460021018C4FF6FD73F1
:1025200019401143018470470A460021018C4FF67F
:10253000F77319401143018470470A460021018C4A
:102540004FF6DF7319404FF6FF7303EA0213194386
:10255000018470470A460021018C4FF67F731940B1
:102560004FF6FF7303EA02131943018470470A46CA
:102570000021018C4FF6FF5319404FF6FF7303EA19
:1025800002231943018470470A460021018C4FF24F
:10259000FF7319404FF6FF7303EA022319430184C6
:1025A00070470A460021018C4DF6FF7319404FF623
:1025B000FF7303EA023319430184704730B50023E7
:1025C00001248C40A3B2048C9C430484048C02FA42
:1025D00001F5ADB22C43048430BD30B50023042492
:1025E0008C40A3B2048C9C430484048C02FA01F551
:1025F000ADB22C43048430BD828B4FF2FF331A40BE
:102600008283828B4FF6FF7303EA01231A4382838E
:102610007047F0B50C461546002100220026078CB5
:102620004EF6FF7C07EA0C070784818B028C4FF67D
:10263000FF7707EA043640F6FF4739404FF6FF7749
:1026400007EA052739434FF6FF7707EA033739438F
:1026500045F6FF773A4046F480573A438183028437
:10266000F0BD828B4FF6F3731A408283828B0A434C
:1026700082837047F0B50C461546002100220026E3
:10268000078C4FF6FF6C07EA0C070784818B028CDE
:102690004FF6FF7707EA04264FF60C7739404FF6DE
:1026A000FF7707EA03172F4339434FF2FF573A40AA
:1026B00046F480773A4381830284F0BD028B4FF267
:1026C000FF331A400283028B4FF6FF7303EA0123A4
:1026D0001A4302837047F0B50C46154600210022CC
:1026E0000026078C4FF6EF7C07EA0C070784018B66
:1026F000028C4FF6FF7707EA041640F6FF47394091
:102700004FF6FF7707EA033739434FF6FF7703E0C9
:10271000000001400004014007EA052739434FF655
:102720005F773A4046F010073A4301830284F0BDD8
:10273000028B4FF6F3731A400283028B0A43028323
:102740007047F0B50C46154600210022068C4FF666
:10275000FE773E400684018B028C4FF60C763140AA
:102760007E1C06EA03162E4331434FF6F5763240BF
:1027700044F00106324301830284F0BD70B5054682
:102780000C46208850B92389A28861882846FFF723
:10279000D8FFE1882846FFF7CBFF25E020880428F2
:1027A0000AD12389A28861882846FFF794FFE1882F
:1027B0002846FFF783FF17E0208808280AD12389DD
:1027C000A28861882846FFF755FFE1882846FFF771
:1027D00048FF09E02389A28861882846FFF719FF8E
:1027E000E1882846FFF708FF70BD00210180418085
:1027F000012181800021C180018170472DE9F041D4
:1028000005460C4600260127608808B9022600E02C
:102810000026A088012801D1022700E00127208896
:10282000A0B92389A28861882846FFF78AFFE1883A
:102830002846FFF77DFF23893A4631462846FFF7B1
:102840004AFFE1882846FFF739FF13E02389A28871
:1028500061882846FFF73FFFE1882846FFF72EFFF3
:1028600023893A4631462846FFF76BFFE188284620
:10287000FFF75EFFBDE8F0810146486B70470146F7
:10288000886B70470146C86B70470146086C7047FB
:102890000A884B881A438B881A43CB881A430B89C2
:1028A0001A434B891A438B891A43A0F84420704776
:1028B0000021018041808180C1800181418181812D
:1028C000704731B1B0F8442042F40042A0F84420EF
:1028D00005E0B0F84420C2F30E02A0F8442070478F
:1028E00021B1828842F00402828004E082884FF69F
:1028F000FB731A408280704721B1828842F0010246
:10290000828004E082884FF6FE731A40828070470E
:102910001AB183890B43838102E083898B438381CE
:1029200070478182704702460020138A0B400BB12A
:10293000012000E000207047CA430282704730B592
:102940000246002000230024158A05EA0103958928
:1029500005EA010413B10CB1012000E0002030BDF4
:10296000CA430282704741EA0203A0F84830704728
:102970001AB183890B43838102E083898B4383816E
:10298000704721B1828842F00802828004E0828888
:102990004FF6F7731A408280704701894FF6F8723C
:1029A0001140018170470A46002101894FF68F735B
:1029B000194011430181704730B504460D46294640
:1029C0002046FFF7F0FF208940F00700208130BD4E
:1029D0002DE9F04104460D4616461F46602D06D1EE
:1029E0003B46012231462046FFF775FE05E03B4697
:1029F000012231462046FFF7A4FE29462046FFF774
:102A0000D2FF208940F007002081BDE8F08130B579
:102A10000C4600210189C9B24FF6FF7505EA03256E
:102A2000154325432943018130BD2DE9F041054679
:102A30000E4617469846002443463A4631462846F5
:102A4000FFF7E5FF2C894FF6F870044044F00704C7
:102A50004FF68F70044044F070042C81BDE8F08183
:102A6000F0B504460D4616461F463B4632462946FB
:102A70002046FFF7CCFF208940F480402081F0BD44
:102A800082884FF68F731A40828082880A43828040
:102A9000704702894FF6F8731A40028102890A438F
:102AA0000281704702894FF67F731A4002810289C2
:102AB0000A4302817047F0B50C4615461E460021B8
:102AC000002200230189028B038C4FF6F8773940EE
:102AD00021434FF6FC473A4040F201173A434FF684
:102AE000DD773B404FF6FF7707EA06172F433B435E
:102AF000018102830384F0BD21B1828842F080020B
:102B0000828004E082884FF67F731A40828070478B
:102B1000A0F850107047000010B50446FE488442EB
:102B200008D101211020FFF700F900211020FFF744
:102B3000FCF857E0F948844209D101214804FFF725
:102B4000E3F800214FF40030FFF7DEF84AE0F448E4
:102B5000844209D101218804FFF7D6F800214FF4FF
:102B60008020FFF7D1F83DE0EE48844209D10121F1
:102B7000C804FFF7C9F800214FF40020FFF7C4F89C
:102B800030E0E948844209D101210805FFF7BCF88B
:102B900000214FF48010FFF7B7F823E0E3488442A8
:102BA00008D101212020FFF7C0F800212020FFF7E5
:102BB000BCF817E0DE48844209D101218807FFF7FD
:102BC000A3F800214FF08040FFF79EF80AE0D948B3
:102BD000844207D101214005FFF796F800216005E6
:102BE000FFF792F810BD2DE9FF4705460E46002479
:102BF000A14600BFA046B08900B100BF2C8A24F4D2
:102C00004054F08804432C82AC8941F20C60844328
:102C1000B08831890843718908430443AC81AC8A88
:102C200024F44074B0890443AC826846FEF7FDFE8C
:102C3000B948854202D0BD48854202D1DDF80C90EA
:102C400001E0DDF80890A88900F4004040B109EBEC
:102C5000C90000EB091031684900B0FBF1F707E04B
:102C600009EBC90000EB091031688900B0FBF1F7EE
:102C70006420B7FBF0F004012009642101FB107807
:102C8000A88900F4004040B1322000EBC800B0FB3E
:102C9000F1F000F00700044308E0322000EB0810D8
:102CA0006421B0FBF1F000F00F0004432C81BDE87B
:102CB000FF874FF41651016000218180C18001819E
:102CC0000C21418100218181704710B5024600200E
:102CD000108A20F470600B884C8823438C8823432F
:102CE000CC8823431843108210BD0021018041800D
:102CF0008180C180704721B1828942F40052828173
:102D000004E082894DF6FF731A4082817047028B7E
:102D100002F47F420283028B0A430283704721B18F
:102D2000828942F40042828103E08289C2F30E026A
:102D30008281704721B1828A42F40062828204E07B
:102D4000828A4FF2FF731A40828270470246002047
:102D5000B1F5007F00D100BF13880B400BB10120FB
:102D600000E00020704730B504460D46C5F308006A
:102D7000A08000BF80212046FFF7E8FF0028F9D09F
:102D800030BD01468888C0F308007047028A4FF6BC
:102D9000F0731A400282028A0A430282704721B10C
:102DA000828942F00202828104E082894FF6FD733B
:102DB0001A408281704782894FF2FF731A408281E4
:102DC00082890A4382817047028A4FF6DF731A4074
:102DD0000282028A0A430282704721B1028A42F4C7
:102DE0008042028204E0028A4BF6FF731A4002829C
:102DF0007047818941F001018181704721B1828A48
:102E000042F00802828204E0828A4FF6F7731A4089
:102E100082827047028BD2B20283028B42EA012285
:102E20000283704721B1828A42F02002828204E04C
:102E3000828A4FF6DF731A408282704721B1828AFC
:102E400042F01002828204E0828A4FF6EF731A4049
:102E500082827047828A4FF6FB731A408282828A8E
:102E60000A438282704721B1828A42F00202828242
:102E700004E0828A4FF6FD731A40828270471AB1CD
:102E8000838A0B43838202E0838A8B438382704769
:102E9000F0B50346002400260025002040F66A17FE
:102EA000B94200D100BF1846C1F3421401F01F0619
:102EB000012707FA06F5012C01D10C3004E0022CA1
:102EC00001D1103000E014301AB107682F430760B9
:102ED00002E00768AF430760F0BD01F40072B2F58D
:102EE000007F00D100BFCA430280704770B5024620
:102EF000002400230025002040F66A16B14200D1CC
:102F000000BFC1F3421501F01F03012606FA03F3C7
:102F1000012D13D196890FE00010014000440040BC
:102F200000480040004C00400050004000140140A8
:102F300000780040007C0040334006E0022D02D1C2
:102F4000168A334001E0968A33400C12012606FAB5
:102F500004F41688344013B10CB1012000E00020C5
:102F600070BD10B50022002340F66A14A14200D1C2
:102F700000BF0A1201249440A3B2DC43048010BDB8
:102F800010B504466FF00400FEF7DEFAE11704EB1B
:102F90005171C1F3C701394A11701046007800EB36
:102FA0004001C1EBC0104FF6FF7101EAC000344987
:102FB000088010BD0146314A12784A434FF0E023A1
:102FC0005A6100229A611A46126942F001021A619E
:102FD00000BF4FF0E022106900F001021AB100F4C6
:102FE0008032002AF5D04FF0E022126922F001026F
:102FF0004FF0E0231A6100229A6170470146204A8F
:1030000012884A434FF0E0235A6100229A611A461F
:10301000126942F001021A6100BF4FF0E02210690C
:1030200000F001021AB100F48032002AF5D04FF00E
:10303000E022126922F001024FF0E0231A6100221F
:103040009A61704770B504464FF4077094FBF0F036
:10305000C6B24FF4077094FBF0F100FB114085B24B
:1030600005E04FF40770FFF7C9FF701EC6B2002ECF
:10307000F7D115B12846FFF7C1FF70BD94000020BD
:103080009600002000BF704700BFA94A128802F0D6
:103090004002002AF9D0C2B2A54B9A80704710B501
:1030A00088B0044601210846FEF790FD012110205A
:1030B000FEF7E6FD072209219E48FEF774FB072272
:1030C0000A219C48FEF76FFB4FF4C0600690022077
:1030D0008DF81C008DF81D0000208DF81E000120C9
:1030E0008DF81F0006A99348FEF7D2FA029400203B
:1030F000ADF80C00ADF80E00ADF81000ADF81400FE
:103100000C20ADF8120002A98948FFF76CFD0121DF
:103110008748FFF7F0FD012240F225518448FFF770
:10312000B7FE25208DF8040001208DF805008DF8EC
:1031300006008DF8070001A8FEF7B9F908B010BD28
:1031400010B588B004467C48FFF7E6FC0121042056
:10315000FEF73CFD0121C804FEF781FD4FF44060FD
:10316000059002208DF818008DF8190000208DF8C8
:103170001A0001208DF81B0005A97048FEF788FA97
:1031800008220B216D48FEF70EFB08220A216B482E
:10319000FEF709FB01940020ADF80800ADF80A0025
:1031A000ADF80C000C20ADF80E0001A96248FFF745
:1031B0001AFD012240F225515F48FFF769FE012107
:1031C0005D48FFF798FD34208DF81C0000208DF835
:1031D0001D0002208DF81E0001208DF81F0007A899
:1031E000FEF765F900205649088008B010BD0FB4FD
:1031F00038B505A800905348009A049901F098FA50
:10320000002000904F4801F0B1FB85B200240DE092
:1032100000BF40214848FFF799FD0028F9D04948F0
:10322000015D4548FFF79FFD601C84B2AC42EFDBB7
:1032300038BC5DF814FB10B588B004464248FFF76F
:103240006BFC01210220FEF7C1FC01218804FEF77E
:1032500006FD4FF44060059002208DF818008DF8AF
:10326000190000208DF81A0001208DF81B0005A917
:103270003648FEF70DFA07220B213448FEF793FA81
:1032800007220A213148FEF78EFA01940020ADF89A
:103290000800ADF80A00ADF80C00ADF810000C20E5
:1032A000ADF80E0001A92848FFF79DFC012240F26D
:1032B00025512548FFF7ECFD01212348FFF71BFDB1
:1032C00027208DF81C0002208DF81D0003208DF8AA
:1032D0001E0001208DF81F0007A8FEF7E8F8002067
:1032E0001B49088008B010BD0FB438B505A8009080
:1032F0001848009A049901F01BFA00200090154824
:1033000001F034FB85B200240DE000BF40210E48DF
:10331000FFF71CFD0028F9D00E48015D0A48FFF7B1
:1033200022FD601C84B2AC42EFDB38BC5DF814FBBC
:103330000010014000000240004C00400008024024
:103340009E00002078010020004800400004024058
:10335000A0000020980400201CB501212020FEF7C9
:1033600035FC47F6F070009001208DF80400002035
:103370008DF8060003208DF8050001208DF8070068
:1033800069461D48FEF784F90E20009000208DF854
:10339000040001208DF8070069461748FEF778F908
:1033A00001210220FEF712FCBE20009001208DF8C2
:1033B000040000208DF8060003208DF80500012090
:1033C0008DF8070069460D48FEF762F94FF47C71ED
:1033D0000948FEF7D9F901210420FEF7F7FB1E206A
:1033E000009000208DF8040001208DF80700694648
:1033F0000348FEF74DF91CBD0014024000040240D2
:10340000000802401CB501210420FEF7DFFB42F258
:10341000FE30009001208DF8040000208DF8060099
:1034200002208DF805006946F648FEF731F90821BB
:10343000F448FEF7A9F91021F248FEF7A5F9022198
:10344000F048FEF7A1F90421EE48FEF79DF94FF48C
:103450000071EC48FEF798F98021EA48FEF794F9EC
:103460004FF48071E748FEF78FF94FF40051E548BB
:10347000FEF78AF91CBD1CB54020009001208DF894
:10348000040000208DF8060002208DF80500694632
:10349000DC48FEF7FDF81CBD1CB510200090012093
:1034A0008DF8040000208DF8060002208DF805003C
:1034B0006946D448FEF7ECF81CBD1CB5042000900A
:1034C00001208DF8040000208DF8060002208DF800
:1034D00005006946CB48FEF7DBF81CBD1CB5802013
:1034E000009001208DF8040000208DF806000220D5
:1034F0008DF805006946C348FEF7CAF81CBD1CB527
:103500004FF40050009001208DF8040000208DF849
:10351000060002208DF805006946BA48FEF7B8F8A3
:103520001CBD1CB54020009000208DF80400012037
:103530008DF807006946B348FEF7AAF81CBD1CB514
:103540001020009000208DF8040001208DF8070065
:103550006946AC48FEF79CF81CBD1CB504200090E1
:1035600000208DF8040001208DF807006946A54869
:10357000FEF78EF81CBD1CB58020009000208DF851
:10358000040001208DF8070069469E48FEF780F888
:103590001CBD1CB54FF40050009000208DF80400B5
:1035A00001208DF8070069469648FEF771F81CBDAA
:1035B00010B5FFF760FF40219248FEF7E5F82021A3
:1035C0009048FEF7E1F80520FFF7F4FC40218D4814
:1035D000FEF7DCF80620FFF7EDFC20218948FEF716
:1035E000D5F810BD10B5FFF757FF10218548FEF73D
:1035F000CBF808218348FEF7C7F80520FFF7DAFC6F
:1036000010218048FEF7C2F80620FFF7D3FC0821FE
:103610007C48FEF7BBF810BD10B5FFF74EFF042144
:103620007848FEF7B1F802217648FEF7ADF805209C
:10363000FFF7C0FC04217348FEF7A8F80620FFF747
:10364000B9FC02216F48FEF7A1F810BD10B5FFF7D5
:1036500045FF80216B48FEF797F84FF400716948E9
:10366000FEF792F80520FFF7A5FC80216548FEF7DC
:103670008DF80620FFF79EFC4FF400716148FEF7BD
:1036800085F810BD10B5FFF73AFF4FF400515D48C3
:10369000FEF77AF84FF480715A48FEF775F8052066
:1036A000FFF788FC4FF400515648FEF76FF80620EC
:1036B000FFF780FC4FF480715248FEF767F810BDA9
:1036C00010B5FFF7D8FE20214E48FEF75FF84021E5
:1036D0004C48FEF75BF820214A48FEF755F80620D3
:1036E000FFF768FC40214748FEF74EF80620FFF739
:1036F00061FC10BD10B5FFF7CFFE08214148FEF771
:1037000045F810213F48FEF741F808213D48FEF7F3
:103710003BF80620FFF74EFC10213A48FEF734F83C
:103720000620FFF747FC10BD10B5FFF7C6FE0221CB
:103730003448FEF72BF804213248FEF727F802211F
:103740003048FEF721F80620FFF734FC04212D480D
:10375000FEF71AF80620FFF72DFC10BD10B5FFF795
:10376000BDFE4FF400712748FEF710F840212548B0
:10377000FEF70CF84FF400712248FEF705F806201A
:10378000FFF718FC80211F48FDF7FEFF0620FFF71A
:1037900011FC10BD10B5FFF7B2FE4FF4807119484F
:1037A000FDF7F4FF4FF400511648FDF7EFFF4FF41B
:1037B00080711448FDF7E8FF0620FFF7FBFB4FF48C
:1037C00000511048FDF7E0FF0620FFF7F3FB10BDA6
:1037D00010B520210B48FDF7D9FFFFF74CFE402123
:1037E0000848FDF7D3FF0220FFF7E4FB202105483E
:1037F000FDF7CAFF0520FFF7DDFB20210148FDF79B
:10380000C5FF10BD0008024010B50821FB48FDF7B8
:10381000BDFFFFF741FE1021F848FDF7B7FF02207A
:10382000FFF7C8FB0821F548FDF7AEFF0520FFF7BD
:10383000C1FB0821F148FDF7A9FF10BD10B5022119
:10384000EE48FDF7A3FFFFF738FE0421EB48FDF734
:103850009DFF0220FFF7AEFB0221E848FDF794FF31
:103860000520FFF7A7FB0221E448FDF78FFF10BDFD
:1038700010B54FF40071E148FDF788FFFFF72EFE09
:103880008021DE48FDF782FF0220FFF793FB4FF413
:103890000071DA48FDF778FF0520FFF78BFB4FF446
:1038A0000071D648FDF772FF10BD10B54FF480715E
:1038B000D248FDF76BFFFFF722FE4FF40051CF48CF
:1038C000FDF764FF0220FFF775FB4FF48071CB48D2
:1038D000FDF75AFF0520FFF76DFB4FF48071C748D5
:1038E000FDF754FF10BD10B52021C448FDF74EFF71
:1038F000FFF7C1FD4021C148FDF746FF0220FFF759
:1039000059FB2021BD48FDF73FFF0520FFF752FB83
:103910002021BA48FDF73AFF10BD10B50821B7487D
:10392000FDF734FFFFF7B8FD1021B448FDF72CFF79
:103930000220FFF73FFB0821B048FDF725FF0520D7
:10394000FFF738FB0821AD48FDF720FF10BD10B58B
:103950000221AA48FDF71AFFFFF7AFFD0421A7488F
:10396000FDF712FF0220FFF725FB0221A348FDF718
:103970000BFF0520FFF71EFB0221A048FDF706FF05
:1039800010BD10B54FF400719C48FDF7FFFEFFF726
:10399000A5FD80219948FDF7F7FE0220FFF70AFBFD
:1039A0004FF400719548FDF7EFFE0520FFF702FB8D
:1039B0004FF400719148FDF7E9FE10BD10B54FF4CA
:1039C00080718E48FDF7E2FEFFF799FD4FF400513C
:1039D0008A48FDF7D9FE0220FFF7ECFA4FF4807118
:1039E0008648FDF7D1FE0520FFF7E4FA4FF4807119
:1039F0008248FDF7CBFE10BD10B50024FFF791FD06
:103A000040217E48FDF7C0FE0120FFF7D3FA2021B8
:103A10007A48FDF7B9FE0120FFF7CCFA07E0601CF9
:103A2000C4B2FA2C03DDFFF74BFE012010BD40218C
:103A30007248FDF78FFE0028F1D120216F48FDF775
:103A4000A5FE0020F2E710B50024FFF778FD102155
:103A50006A48FDF799FE0120FFF7ACFA0821674894
:103A6000FDF792FE0120FFF7A5FA07E0601CC4B243
:103A7000FA2C03DDFFF73EFE012010BD10215F4848
:103A8000FDF768FE0028F1D108215C48FDF77EFEB5
:103A90000020F2E710B50024FFF75FFD042157482E
:103AA000FDF772FE0120FFF785FA02215348FDF76A
:103AB0006BFE0120FFF77EFA07E0601CC4B2FA2C0F
:103AC00003DDFFF731FE012010BD04214B48FDF757
:103AD00041FE0028F1D102214848FDF757FE0020A1
:103AE000F2E710B50024FFF746FD80214348FDF7BB
:103AF0004BFE0120FFF75EFA4FF400713F48FDF7DF
:103B000043FE0120FFF756FA07E0601CC4B2FA2C0E
:103B100003DDFFF723FE012010BD80213748FDF7AC
:103B200019FE0028F1D14FF400713448FDF72EFE44
:103B30000020F1E710B50024FFF72BFD4FF40051F2
:103B40002E48FDF721FE0120FFF734FA4FF4807173
:103B50002A48FDF719FE0120FFF72CFA07E0601C48
:103B6000C4B2FA2C03DDFFF715FE012010BD4FF49F
:103B700000512248FDF7EEFD0028F0D14FF480718E
:103B80001E48FDF703FE0020F0E770B5044600254F
:103B9000FFF771FC20211948FDF7F8FD00BF1EE07A
:103BA00004F08000002804DD40211448FDF7ECFDFE
:103BB00003E040211148FDF7E9FD6006040E2021D5
:103BC0000E48FDF7E1FD0220FFF7F4F920210B4834
:103BD000FDF7DCFD0220FFF7EDF9681CC5B2082DEA
:103BE000DEDB70BD70B504460025FFF755FC0821EB
:103BF0000248FDF7CBFD00BF21E0000000080240B5
:103C000004F08000002804DD1021C448FDF7BCFD4D
:103C100003E01021C148FDF7B9FD6006040E08213C
:103C2000BE48FDF7B1FD0220FFF7C4F90821BB48EB
:103C3000FDF7ACFD0220FFF7BDF9681CC5B2082DE9
:103C4000DEDB70BD70B504460025FFF736FC0221AF
:103C5000B248FDF79BFD00BF1EE004F08000002885
:103C600004DD0421AD48FDF78FFD03E00421AB48DE
:103C7000FDF78CFD6006040E0221A848FDF784FDC7
:103C80000220FFF797F90221A448FDF77FFD0220EB
:103C9000FFF790F9681CC5B2082DDEDB70BD70B56A
:103CA00004460025FFF71AFC4FF400719B48FDF70E
:103CB0006DFD00BF20E004F08000002804DD8021BD
:103CC0009648FDF761FD03E080219448FDF75EFD15
:103CD0006006040E4FF400719048FDF755FD022078
:103CE000FFF768F94FF400718C48FDF74FFD022093
:103CF000FFF760F9681CC5B2082DDCDB70BD70B53C
:103D000004460025FFF7FBFB4FF480718348FDF765
:103D10003DFD00BF22E004F08000002805DD4FF4E7
:103D200000517E48FDF730FD04E04FF400517B4820
:103D3000FDF72CFD6006040E4FF480717748FDF707
:103D400023FD0220FFF736F94FF480717348FDF729
:103D50001DFD0220FFF72EF9681CC5B2082DDADB25
:103D600070BD70B5054600260024FFF7DAFB00BFE2
:103D700018E020216948FDF709FD0220FFF71AF934
:103D800020216648FDF700FD6006040E40216348CF
:103D9000FDF7E0FC08B1601CC4B20120FFF70AF98E
:103DA000701CC6B2082EE4DB15B9FFF79CFD01E0DC
:103DB000FFF70EFD204670BD70B5054600260024B5
:103DC000FFF7BDFB00BF18E008215448FDF7DEFCFB
:103DD0000220FFF7EFF808215048FDF7D5FC6006F8
:103DE000040E10214D48FDF7B5FC08B1601CC4B2AB
:103DF0000120FFF7DFF8701CC6B2082EE4DB15B90E
:103E0000FFF78BFD01E0FFF7FFFC204670BD70B5AA
:103E1000054600260024FFF7A0FB00BF18E00221A2
:103E20003E48FDF7B3FC0220FFF7C4F802213B48EF
:103E3000FDF7AAFC6006040E04213848FDF78AFC51
:103E400008B1601CC4B20120FFF7B4F8701CC6B200
:103E5000082EE4DB15B9FFF77AFD01E0FFF7EEFC71
:103E6000204670BD70B5054600260024FFF783FB91
:103E700000BF1AE04FF400712848FDF787FC0220CC
:103E8000FFF798F84FF400712448FDF77DFC6006B9
:103E9000040E80212148FDF75DFC08B1601CC4B20E
:103EA0000120FFF787F8701CC6B2082EE2DB15B9B7
:103EB000FFF767FD01E0FFF7DBFC204670BD70B542
:103EC000054600260024FFF764FB00BF1BE04FF40B
:103ED00080711248FDF75AFC0220FFF76BF84FF48F
:103EE00080710E48FDF750FC6006040E4FF400513F
:103EF0000A48FDF72FFC08B1601CC4B20120FFF78F
:103F000059F8701CC6B2082EE1DB15B9FFF756FD53
:103F100001E0FFF7CAFC204670BD00000008024027
:103F200070B504460025FFF743FBA020FFF72DFEE8
:103F3000FFF762FDE0B2FFF728FEFFF75DFDFFF738
:103F400037FBA120FFF721FEFFF756FD0020FFF70A
:103F500008FF0546FFF7B4FB284670BD70B5044660
:103F60000D46FFF725FBA020FFF70FFEFFF744FDEE
:103F7000E0B2FFF70AFEFFF73FFD2846FFF705FE18
:103F8000FFF73AFDFFF79CFB0A20FFF75BF870BDD7
:103F900070B504460025FFF725FB611CC8B2FFF78A
:103FA00021FEFFF750FD0020FFF706FF0546FFF753
:103FB000A1FB284670BD70B504460025FFF72CFB19
:103FC000611CC8B2FFF73EFEFFF764FD0020FFF75B
:103FD0001EFF0546FFF7A8FB284670BD70B50446D6
:103FE0000025FFF733FB611CC8B2FFF758FEFFF74F
:103FF00078FD0020FFF736FF0546FFF7AFFB2846A8
:1040000070BD70B504460025FFF73CFB611CC8B2CB
:10401000FFF775FEFFF78EFD0020FFF750FF054606
:10402000FFF7B8FB284670BD70B504460D46FFF794
:10403000D9FAE0B2FFF7D6FDFFF705FD2846FFF7F6
:10404000D1FDFFF700FDFFF755FB0A20FEF7FAFF51
:10405000012070BD70B504460D46FFF7DDFAE0B2F1
:10406000FFF7F0FDFFF716FD2846FFF7EBFDFFF722
:1040700011FDFFF759FB0A20FEF7E4FF012070BD98
:1040800070B504460D46FFF7E1FAE0B2FFF707FE10
:10409000FFF727FD2846FFF702FEFFF722FDFFF797
:1040A0005DFB0A20FEF7CEFF012070BD70B504460F
:1040B0000D46FFF7E7FAE0B2FFF721FEFFF73AFD02
:1040C0002846FFF71CFEFFF735FDFFF763FB0A20CC
:1040D000FEF7B8FF012070BD70B504460D461646C8
:1040E000FFF780FAE0B2FFF77DFDFFF7ACFC284652
:1040F000FFF778FDFFF7A7FC3046FFF773FDFFF7EA
:10410000A2FCFFF7F7FA0A20FEF79CFF70BD70B51E
:1041100004460D461646FFF77FFAE0B2FFF792FD20
:10412000FFF7B8FC2846FFF78DFDFFF7B3FC3046DC
:10413000FFF788FDFFF7AEFCFFF7F6FA0A20FEF75F
:1041400081FF70BD70B505460024FFF731FAA0204D
:10415000FFF71BFDFFF750FCE8B2FFF716FDFFF776
:104160004BFCFFF725FAA120FFF70FFDFFF744FCFA
:104170000120FFF7F6FD04464FF6FF7000EA042425
:104180000020FFF7EEFD0443FFF79AFA204670BDCA
:1041900070B505460C46FFF70BFAA020FFF7F5FCBB
:1041A000FFF72AFCE8B2FFF7F0FCFFF725FC20122E
:1041B000FFF7EBFCFFF720FCE0B2FFF7E6FCFFF7B0
:1041C0001BFCFFF77DFA0A20FEF73CFF70BD0000E4
:1041D0007FB505460C4601210220FDF740FD029502
:1041E000ADF804400020ADF80600ADF80C0001A9C0
:1041F000FE48FDF7ECFE01221146FC48FEF788FB65
:104200000121FA48FDF76CFF0121F848FEF7A8FBF1
:104210001D208DF8000000208DF801008DF80200AF
:1042200001208DF803000121F048FEF799FB684654
:10423000FDF73DF97FBD7FB505460C4601210820FD
:10424000FDF70DFD0295ADF804400020ADF8060025
:10425000ADF80C0001A9E648FDF7B9FE01221146B0
:10426000E348FEF755FB0121E148FDF739FF012145
:10427000DF48FEF775FB32208DF8000001208DF835
:1042800001008DF802008DF803000121D848FEF7E7
:1042900067FB6846FDF70BF97FBD30B58BB0044670
:1042A0000D4601210802FDF7DAFC01212020FDF76F
:1042B0008DFC09221146CF48FDF775FA4FF40070C6
:1042C000099002208DF8280003208DF82900002095
:1042D0008DF82A0001208DF82B0009A9C548FDF7AB
:1042E000D7F9A8B2ADF818000020ADF81A0007946D
:1042F000ADF8200006A9C048FDF769FE6020ADF8C2
:1043000004000120ADF806000220ADF8100001A95C
:10431000B948FDF7F1FE0821B748FEF77AF8012108
:10432000B548FDF7BFFE0121B348FDF7D9FE0BB03C
:1043300030BD30B58BB004460D4601210820FDF795
:104340008EFC01210846FDF741FC02220021AB480A
:10435000FDF729FA0120099002208DF8280003209A
:104360008DF8290000208DF82A0001208DF82B00FF
:1043700009A9A248FDF78CF9A8B2ADF818000020F1
:10438000ADF81A000794ADF8200006A99848FDF78B
:104390001EFE6020ADF804000120ADF806000220EA
:1043A000ADF8100001A99248FDF7A6FE082190483B
:1043B000FEF72FF801218E48FDF774FE01218C488D
:1043C000FDF78EFE0BB030BD30B58BB004460D4608
:1043D00001210804FDF754FC01210846FDF7F6FB16
:1043E000032202218548FDF7DEF90420099002200E
:1043F0008DF8280003208DF8290000208DF82A0070
:1044000001208DF82B0009A97C48FDF741F9A8B2DD
:10441000ADF818000020ADF81A000794ADF82000A0
:1044200006A97748FDF7D3FD6020ADF80400012010
:10443000ADF806000220ADF8100001A97048FDF7A4
:104440005BFE08216E48FDF7E4FF01216C48FDF793
:1044500029FE01216A48FDF743FE0BB030BD30B59F
:104460008BB004460D4601210220FDF7F8FB012127
:104470000846FDF7ABFB022206216048FDF793F9E1
:104480004020099002208DF8280003208DF8290093
:1044900000208DF82A0001208DF82B0009A957482B
:1044A000FDF7F6F8A8B2ADF818000020ADF81A0034
:1044B0000794ADF8200006A94C48FDF788FD602060
:1044C000ADF804000120ADF806000220ADF81000A0
:1044D00001A94648FDF710FE08214448FDF799FF61
:1044E00001214248FDF7DEFD01214048FDF7F8FDBE
:1044F0000BB030BD7FB505460C4601210220FDF70B
:10450000BFFB0295ADF804400020ADF80C00ADF8FB
:10451000060001A93B48FDF75AFD01213948FEF785
:104520001FFA012211463748FEF7F2F92E208DF8C6
:10453000000000208DF8010002208DF8020001200B
:104540008DF803006846FCF7B2FF7FBD10B501216E
:104550002C48FEF7F4F970B101212A48FEF700FA61
:104560002948006808B9012000E0002026490860B9
:1045700026A000F0EFF810BD30B587B004460D4618
:1045800001214804FDF77CFB01210220FDF71EFB01
:104590004FF48070059002208DF8180003208DF8EC
:1045A000190000208DF81A0002208DF81B0005A9C3
:1045B0001948FDF76DF8032208211748FDF7F3F8B5
:1045C000ADF808500020ADF80A000394ADF81000D3
:1045D00002A91248FDF7FBFC002011490880488021
:1045E000012088800020C88008811BE00004004072
:1045F000000C004000140240002000400000024077
:104600000040014000040140A4824242686A686A96
:10461000686A680D0A00000000040240004401407E
:10462000B80700203E48FEF7A9F8012203213C48C4
:10463000FEF76EF901213A48FDF752FD19208DF879
:10464000040002208DF8050000208DF806000120EE
:104650008DF8070001A8FCF72AFF07B030BD10B5A0
:104660003048007800F08000002854D101212C4807
:10467000FEF765F9D0B12B48007800F04000A8B1F2
:104680002848007800F03F003F280AD125480078EC
:1046900040F08000234908704FF0FF302249086045
:1046A00004E020480078401C1E49087002211C4884
:1046B000FEF745F978B31B48007800F0400078B168
:1046C0001848007840F08000164908701448FEF73A
:1046D000D3F81549086000211148FDF71CFF1AE0C6
:1046E000002010490870104908600E48007840F01A
:1046F00040000C49087000210948FDF7F1FC002139
:104700000748FDF7ADFC02210548FDF704FF012134
:104710000348FDF7E5FC03210148FEF721F910BD30
:1047200000440140A4000020A800002070470000C1
:104730001CB50C46064B7B4469460090204600F0B1
:104740001AFC04460020694600F028FC20461CBDE7
:10475000630800000FB4044910B503AA029800F0E2
:1047600023FC10BC5DF814FB980000202DE9F041FB
:104770000646002410687529314616A510D000F0B1
:104780003FF9002802DA404213A507E031688A07A2
:1047900001D512A502E0490704D511A5012401E0C5
:1047A00000F037F900210A2206F1240709E0B0FBE6
:1047B000F2FCB0FBF2F302FB1C00303078541846D8
:1047C000491C0028F3D123462A463046BDE8F04173
:1047D00000F051B9000000002D0000002B00000087
:1047E000200000002DE9F05F894604464FF0000AE2
:1047F000DFF874B1FB44C0F820A02046E168884788
:10480000002874D0252806D0D4E901219047206AD9
:10481000401C2062F1E700265F462046E168884799
:104820002028054607DB312D05D2781910F8200C19
:1048300008B10643F1E7B00701D526F00406C4F835
:104840001CA00027C4F818A02A2D09D0284601F082
:10485000ECFB38B304EB8708303DC8F8185019E07A
:1048600059F8041B204604EB87029161E1688847F0
:10487000012F054618D1E069002820DA26F020062D
:104880001DE0D8F8180000EB800005EB4000303840
:10489000C8F818002046E1688847054601F0C5FBC6
:1048A0000028EED1012F0AD02E2D08D12046E16834
:1048B00088477F1C0546022F46F02006C4DBA0690E
:1048C000002803DA404246F00106A061F00701D05B
:1048D00026F010066C2D0BD0682D09D04C2D39D048
:1048E0006A2D35D0742D35D07A2D33D016E038E0CE
:1048F000E1682F4620468847B842054609D16C2F0B
:1049000026D04FF48060E16806432046884705467C
:1049100004E06C2F1AD04FF4807006430DB3A5F15C
:104920004100192802D8203546F400664A46294637
:10493000204626604E46FBF761FC80B101280BD073
:10494000F61D26F0070000F1080956E74020E4E7CD
:104950008020D8E70020D6E706F104094DE7284675
:1049600052E7206ABDE8F09F9819000010B5431C7B
:1049700002E010F8011B71B18107FAD14FF001324A
:1049800002C88C1A8C4314EAC211F9D0C01A0A0664
:1049900003D0C01E10BDC01A10BD0A0401D0801E75
:1049A00010BD0902FCD0401E10BD70477047704713
:1049B000704770B5044685690068C10601D5302688
:1049C00000E02026C00707D070BDD4E901213046A1
:1049D0009047206A401C20626D1EF6D570BD70B5F0
:1049E000044685690078C00707D170BDD4E901216C
:1049F00020209047206A401C20626D1EF6D570BDB5
:104A000009684A0501D540B27047C905FCD500B216
:104A1000704709684A0501D5C0B27047C905FCD581
:104A200080B2704770B50C460546012A05D028783B
:104A3000800600D5EA69002302E0012305E05B1C43
:104A4000934202D2E05C0028F9D1A869E618C01AA6
:104A5000A861286A184428622846FFF7AAFF04E0E4
:104A6000D5E9012114F8010B9047B442F8D3284648
:104A7000FFF7B5FF70BD2DE9F0470D469946924608
:104A8000044600F124080168880604D5E06921F095
:104A90001001216000E00120A84201DD471B00E079
:104AA0000027A1697A1902EB0900081AA061207891
:104AB000C00602D42046FFF77CFF002608E0D4E9B8
:104AC00001211AF806009047206A401C761C2062DB
:104AD0004E45F4DB2078C0060AD52046FFF769FF73
:104AE00006E0D4E9012130209047206A401C206272
:104AF000381EA7F10107F4DC07E0D4E9012118F81A
:104B000005009047206A401C2062281EA5F101057F
:104B1000F3DC2046FFF763FF2078000602D5022071
:104B2000BDE8F0870120FBE711680268006A5305C1
:104B300001D508700AE0D30501D5088006E0130608
:104B400003D5C217C1E9000200E0086001207047E8
:104B500070472DE9FF4F0C461E464FF0FF378BB0D4
:104B6000D2E90001DDF860800A908A46C1F30A5557
:104B700005B93D46002108464FF00000BAF1000F8C
:104B800000F4400005DA00EB80004FF4400101EA38
:104B900050004FEA9059B9F1010F00DDB9460A986B
:104BA00050EA4A000ED044F61050A5F2FF354543B6
:104BB0002F14B8F1000F1ED07542291E1EDDC9F159
:104BC00000021CE0B8F1010F4FF0000001D03021CD
:104BD00003E0F24305E02154401CB042FBDB3046C9
:104BE0000022002121540B99C1F80880C1E900205E
:104BF0000FB0BDE8F08FBD1B6D1CDEE74A4600DA42
:104C0000694206A800F034FD06AB93E8070003AB49
:104C100083E8070050460A9900F034FE8DE807004B
:104C2000A0F500501F3800900398002D09DD42F2D6
:104C30001F014A46084403A90390684601F093F80F
:104C400008E0A0F500504A461F3803A903906846C3
:104C500001F09DF88DE807000004000C03D04FF030
:104C6000FF30410800E01046B8F1000F03D00022E9
:104C7000009215461EE0751E05D400F0C9FA3032C8
:104C800062556D1EF9D5B3460122084302D00022B9
:104C90007F1C04E02078302801D100227F1E002AEA
:104CA000099786D01DE0112D07DA00F0B1FA3032F5
:104CB00062556D1C50EA0102F5D1084302D00098FC
:104CC000C8B10EE00021681E05E0235C625C6354FD
:104CD0002254401E491C8142F7DBAB46A81B401EF4
:104CE0000990002004F80B000B98099AC0F808807E
:104CF000C0E9002B7CE711264FF0000859E72DE9A9
:104D0000F04F88460446D21D22F0070191B0D1E948
:104D10000001CDE90A0101F070F902460B98C00FBD
:104D200001D02D2007E02068810701D52B2002E06B
:104D3000202101EAC000032A099001D0072A05DBDF
:104D400003464146204600F027FC0BE12078800610
:104D500001D5E06900E00620B8F1650F814606D074
:104D6000B8F1660F18D0B8F1670F70D131E00020AC
:104D7000B9F1110F009001DB112301E009F10103EA
:104D80000AAA01A90CA8FFF7E4FEDDE90C700026D1
:104D900009F10105834647E001204B4600904FF0A2
:104DA00000470AAA01A90CA8FFF7D3FEDDE90DB060
:104DB0000C995D46002610B909F101000D18B9EBF8
:104DC000050003D4C0F1FF3609F10105A5EB090088
:104DD0002BE0B9F1010F01DA4FF001090020B9F120
:104DE000110F0090484601DD112300E003460AAA96
:104DF00001A90CA8FFF7ADFEDDE90C704D460026B9
:104E00008346207800070AD4AB4500DA5D4601A846
:104E1000012D04DD411911F8011C302907D04F453F
:104E200002DA17F1040F04DA012082460FE06D1E4A
:104E3000EEE7002F02DCED1B3E4403E0781CA842A5
:104E400000DD7D1CB81B00F1010A4FF000472078FF
:104E5000000703D4AA4501DB4FF0FF3A0021B7F168
:104E6000004F0DF143088DF8431024D002202B236E
:104E7000002F01DA7F422D230A21021EA0F101003A
:104E800000DC5FB197FBF1FC97FBF1F201FB1C7CAE
:104E900017460CF1300C08F801CDEEE7A8F101003F
:104EA00003702188090501D5452100E06521A0F1A5
:104EB000010800F8011C09980FA9A1EB0807FF1DC4
:104EC00000B10120411901EBEA70A1693844081AC8
:104ED000401EA0612078C00602D42046FFF769FD7D
:104EE000099828B1D4E901219047206A401C20622A
:104EF0002078C00622D52046FFF75BFD1EE0002E7D
:104F000004DBB34502DD01A8805D00E03020D4E978
:104F100001219047206A401C2062761CAAF1010002
:104F20005FEA000A0AD100F06FF9C0680168405CCE
:104F3000D4E901219047206A401C2062281EA5F177
:104F40000105DCDC07E0D4E9012118F8010B9047EA
:104F5000206A401C2062381EA7F10107F3DC2046BE
:104F6000FFF73DFD032011B043E6000001694A1C34
:104F700002610878704700B58FB0CDE9013100219A
:104F8000059105497944CDE9031011466846FFF7BC
:104F900029FC0FB000BD0000E5FFFFFF0A6802F822
:104FA000010B0A6070470000074B70B50D467B444B
:104FB000FFF7E1FF0446284600F0C8FB10B14FF0B0
:104FC000FF3070BD204670BDD7E0FFFF2DE9FF5FC9
:104FD00015468A460446DFF8AC80F8440027D8E935
:104FE00000103E46CDE9001010E03AF816106A466F
:104FF00002A800F0AFFB411C07D02178890603D539
:10500000E269391891420DD80744761C2078800651
:1050100002D5E069B84205DDAE42E6DB3AF816009B
:105020000028E2D1A069C01BA0612046FFF7C1FCA7
:10503000D8E90010CDE90010002017E03AF8181068
:105040006A4602A800F086FBB0F1FF3F81460BD014
:1050500000250DF1080B05E0D4E901211BF805003E
:1050600090476D1C4D45F7D308F10100B0428046D2
:10507000E4DB206A384420622046FFF7B0FCBDE83C
:10508000FF9F0000C61100002DE9F0418046D21DAF
:1050900022F007020025D2E90002F52915A614D056
:1050A000011E72F1000106DA0023D0EB030063EB6E
:1050B000020211A608E0D8F800108B0701D50FA650
:1050C00002E0490701D50EA601251146002408F18A
:1050D000240704E000F09CF830323A55641C50EA92
:1050E0000102F7D12B46324621464046BDE8F04149
:1050F000FFF7C1BC000000002D0000002B000000E5
:105100002000000030B4002100F1240408E002F087
:105110000705D208303542EA4372DB086554491C62
:1051200052EA0305F3D10468002310A2250708D52D
:1051300004F020040C4304D0C46901230CA2641EB3
:10514000C46130BCFFF797BC10B504462146106817
:10515000FFF75FFC02462046BDE810400023D1E780
:10516000D21D22F00701D1E90023CBE700000000A7
:1051700030000000F0B40D460188090502D5214C2D
:105180007C4402E01F4C7C440E34002100F12406D4
:1051900008E002F00F071209E75D42EA03721B09FB
:1051A0007754491C52EA0307F3D10278002312070F
:1051B00004D5702D06D009B1022311342246F0BC6B
:1051C000FFF759BC01231034F8E770B504460D46CB
:1051D00021461068FFF71DFC024629462046BDE81F
:1051E00070400023C6E7D21D22F00703D3E9002355
:1051F000C0E70368126843F0200303600823C3611B
:105200000023B7E72810000000487047E40700209B
:1052100030B5B0F10A024FEA900E71F100034EEA88
:10522000817EB0EB0E0061EB91014FEA101E4EEA59
:10523000017E10EB0E0041EB11114FEA102E4EEAE9
:10524000016E10EB0E0041EB11214FEA104E4EEAB9
:10525000014E10EB0E0041EB1141401841F10001ED
:105260004FEAD00040EA41704FEAD10110EB8005CF
:105270004FEA810444EA907444EB01046D1944EB55
:105280000404521BA3414FF0000348BF0A3200D56B
:1052900030BD401C41F1000130BD00002DE9F04F50
:1052A00004460D46D21D22F0070089B0D0E90092D5
:1052B00048461746394600F0A0FE0246F80F01D0D6
:1052C0002D2307E02068810701D52B2302E0202150
:1052D00001EAC0038DF820300BB1012000E000206E
:1052E000032A824601D0072A04DB2946204600F023
:1052F00053F93DE12078800601D40D2500E0E569F1
:10530000C7F30A560D2D49DA00214FEA175B08460C
:105310004FF00000002F00F4400007DA00EB80009F
:105320004FF4400100EBD07001EA600081150129C3
:1053300001DD4FF0FF3100224FEA850CBCF1180F60
:1053400006D31346ACF118004FF08052C24003E080
:105350004FF4801323FA0CF30CF10C0CBCF1200F6A
:1053600004D3ACF1200C09FA0CF001E007FA0CF0C0
:1053700000294FF0004801DD18B90FE00ED140457B
:105380000CD319EB02095F4121B9404502D19F437B
:1053900029EA0209BBEB175F00D0761C20880005C4
:1053A00002D57B48784402E079487844193808AA45
:1053B000302302F80A30037C0AF10101002E0AF1C1
:1053C000020A53546A4602DC4FF0300101E04FF00C
:1053D00031014FF001088DF8001002D0A6F2FF361F
:1053E00003E059EA470100D06A4E002D02DC217823
:1053F000090704D54FF002082E218DF80110C4468C
:1054000000210BE0C7F303433F01C35C491C6D1E41
:1054100002F80830052908F1010801DA002DF1DC55
:1054200000210CE000EB1973491C1B786D1E082944
:1054300002F808304FEA091908F1010801DA002DD5
:10544000F0DC2178890602D514E0A8F10108E045D6
:1054500005DD02EB080111F8011C3029F5D0B8F187
:10546000000F07DD02EB080111F8011C2E2901D104
:10547000A8F10108002D05DD3E2102F808106D1E7F
:1054800008F10108407C002E02F8080008F101082C
:1054900004DA2D20764202F8080002E02B2002F800
:1054A00008000A214FF47A70864208F101080BDBEC
:1054B00096FBF0F3303302F8083096FBF0F308F176
:1054C000010800FB136601E0642E0CDB642096FBF0
:1054D000F0F3303302F8083096FBF0F308F10108DE
:1054E00000FB136601E00A2E06DB96FBF1F030307C
:1054F00002F8080008F1010896FBF1F001FB1060CA
:10550000303002F80800A16908F1010808EB050233
:1055100002EB0A00081AA0612078C00602D42046D7
:10552000FFF747FA216A08AE01EB0A00206204E0A7
:10553000D4E9012116F8010B9047BAF1010AF7D21C
:105540002078C00602D52046FFF733FA6E4609E000
:1055500016F8010B3E280FD0D4E901219047206AAC
:10556000401C2062B8F10108F2D22046FFF737FA5A
:1055700009B00320BDE8F08F206A2844206203E0D0
:10558000D4E90121302090476D1EEBD3F8E70000ED
:105590003F0E000002FCFFFF2DE9F0411F460446CC
:1055A00003260168072A01F4006004DB08B116A590
:1055B00005E016A503E008B115A500E015A521F04A
:1055C00010002060A069C01EA0610FB1401EA06144
:1055D0002046FFF7EEF94FB1D4E901213846904754
:1055E000206A401C2062C01C206206E0206AFAE7A4
:1055F000D4E9012115F8010B9047761EF8D2204618
:10560000FFF7EDF9BDE8F0814E414E006E616E008E
:10561000494E4600696E660010B5436913B1AFF399
:10562000008001E0FFF7FEF9012010BD127800F1C3
:1056300024010A7000224A700122EDE711684FF040
:10564000FF32E9E710B5436913B1AFF3008001E021
:10565000FFF7BCFC012010BD128800F124018284F8
:105660000022C2840122EDE711684FF0FF32E9E722
:105670002DE9F047814616468AB0334878440DC874
:105680008DE80D0030487844801C03AC0DC884E8D8
:105690000D0041F69B300844372190FBF1F290FB5E
:1056A000F1F5A5F1800501FB12041B3C02D5644213
:1056B000012000E00020DFF890A080460027FA4497
:1056C000AAF1BE0A0DE0E00709D03246684607EBB2
:1056D00047010AEB810100F05AFB8DE807006410D6
:1056E0007F1C002CEFD1184F7F44AC3F18E0E80737
:1056F00014D007EB04100DF1180A90E80E008AE8A8
:105700000E00C068F04201D198190890324606A9EF
:1057100003A800F03CFB03AB83E807006D10641C9A
:10572000002DE4D132466946B8F1000F03A802D03B
:1057300000F019FB01E000F02AFBC9E90001C9F8FB
:1057400008200AB0BDE8F087F80B0000007B00F0ED
:105750008000704770B516460C46054600F044F8C8
:10576000036893F80101012806D0FF2C0FD8185DBB
:1057700068B101202C7070BDD3F807013246214674
:1057800003F2071303442846BDE8704018474FF062
:10579000FF3070BD00487047C40700207546FFF712
:1057A000F9FFAE4605006946534620F007008546DE
:1057B00018B020B5FBF764FEBDE820404FF00006AE
:1057C0004FF000074FF000084FF0000B21F00701E9
:1057D000AC46ACE8C009ACE8C009ACE8C009ACE82C
:1057E000C0098D467047000010B5FFF70DFD001D84
:1057F00010BD00BF710800000446AFF300802046D2
:10580000FAF761FD4FF0013C50F8042B51F8043BCE
:105810009A4221D1A2EB0C03934313EACC1317D184
:1058200050F8042B51F8043B9A4215D1A2EB0C031B
:10583000934313EACC130BD150F8042B51F8043BDB
:105840009A4209D1A2EB0C03934313EACC13DBD0A9
:105850004FF00000704700BFD01A01BAB1FA81F1D1
:1058600001F0180122FA01F0CB40C1F12001DBB2B6
:10587000C0B2C01A2CFA01F3D11A914311EAC31134
:10588000E6D170475FEA400C08BF91F0000F4FEA85
:105890008C234FEAC12243EA51514FEA1C5018BFF2
:1058A00000F5F0404FEA300018BF41F000415FEAD8
:1058B0006C5C00F02980BCF1FF3F08BF40F08040E5
:1058C0007047130C06BF12044FF0100C4FF0000C81
:1058D000130E04BF12020CF1080C130F04BF1201C7
:1058E0000CF1040C930F04BF92000CF1020CD30FC7
:1058F00004BF52000CF1010C11464FF00002A0F160
:105900001F00A0EB0C00704711F0004F08BF70475C
:1059100031F000413FF4D5AF0B0C06BF09044FF046
:10592000100C4FF0000C0B0E04BF09020CF1080C18
:105930000B0F04BF09010CF1040C8B0F04BF89008D
:105940000CF1020CCB0F04BF49000CF1010CCCF19F
:105950002003A0EB0C0022FA03F302FA0CF241EA56
:10596000030100F10100704720F07F4C80EA030042
:1059700023F07F47ACEB070303F57C5300F00040B6
:1059800003F1FF032DE980494FEA154B09B44FEAB3
:10599000144325EA0B4E24EA03480FF2042606EBD3
:1059A000132749083E785FEA320203FB0667C7F512
:1059B000000707FB06F64FEA54374FEAD64606F1D2
:1059C000020607FB066CCCF1005C4FEA1C472CEA90
:1059D000074C07FB06F40CFB06F504EB15464FEAF3
:1059E000961634BF00204FF000404FEAD13706FB37
:1059F00007FC4FEA1C4C0CFB0BF7D21B03FB0CF70C
:105A000061EB07010CFB0EF7B0EB074072EB17429E
:105A10000CFB08F734BFA2EB0742B2EB074261EB85
:105A200017414FEA0C444FEA910706FB07FC4FEA87
:105A30001C4C0CFB0BF7B0EBC74072EB573203FB6F
:105A40000CF734BFA2EBC742B2EBC74261EB573150
:105A50000CFB0EF7B0EBC70072EB57720CFB08F7AC
:105A600034BFA2EBC702B2EBC70261EB5771039FD1
:105A70004FEA816141EA921104EBCC044FEAD1373D
:105A80004FEA826206FB07FC42EA90124FEA80600E
:105A90004FEA1C4C0CFB0BF7D21B03FB0CF761EB22
:105AA00007010CFB0EF7B0EB074072EB17420CFB43
:105AB00008F734BFA2EB0742B2EB074261EB174194
:105AC0004FEA8C554FEA910704EB9C2406FB07FC38
:105AD0004FEA1C4C0CFB0BF7B0EBC74072EB573294
